{
  "contractName": "VerifySchnorr",
  "abi": [
    {
      "inputs": [
        {
          "internalType": "uint256",
          "name": "prime",
          "type": "uint256"
        },
        {
          "internalType": "uint256",
          "name": "generator",
          "type": "uint256"
        }
      ],
      "stateMutability": "nonpayable",
      "type": "constructor"
    },
    {
      "inputs": [
        {
          "internalType": "bytes32",
          "name": "x",
          "type": "bytes32"
        },
        {
          "internalType": "bytes32",
          "name": "y",
          "type": "bytes32"
        }
      ],
      "name": "hash",
      "outputs": [
        {
          "internalType": "bytes32",
          "name": "",
          "type": "bytes32"
        }
      ],
      "stateMutability": "pure",
      "type": "function",
      "constant": true
    },
    {
      "inputs": [
        {
          "internalType": "uint256",
          "name": "m",
          "type": "uint256"
        },
        {
          "internalType": "uint256",
          "name": "r",
          "type": "uint256"
        },
        {
          "internalType": "uint256",
          "name": "s",
          "type": "uint256"
        },
        {
          "internalType": "uint256",
          "name": "pk",
          "type": "uint256"
        }
      ],
      "name": "Verify",
      "outputs": [
        {
          "internalType": "bool",
          "name": "",
          "type": "bool"
        }
      ],
      "stateMutability": "view",
      "type": "function",
      "constant": true
    }
  ],
  "bytecode": "0x60806040523480156200001157600080fd5b506040516200257e3803806200257e833981810160405281019062000037919062000624565b6200004f8260006200010a60201b620004b31760201c565b6000808201518160000190805190602001906200006e9291906200053a565b5060208201518160010160006101000a81548160ff02191690831515021790555060408201518160020155905050620000b48160006200010a60201b620004b31760201c565b60036000820151816000019080519060200190620000d49291906200053a565b5060208201518160010160006101000a81548160ff021916908315150217905550604082015181600201559050505050620007bc565b62000114620005cb565b62000149836040516020016200012b919062000680565b6040516020818303038152906040528360006200015160201b60201c565b905092915050565b6200015b620005cb565b60208401845160005960006020840614600181146200018f5760208406602003602081840101935080850183525062000199565b6020820192508382525b508282848660046101c2fa506020815101810160405280515b6000602082141415620001ea57600060208301511460018114620001d75750620001ea565b60208301925050602081039050620001b2565b8082528186528760208701525050505050600082146200020b578162000221565b6200022081600001516200023160201b60201c565b5b8160400181815250509392505050565b600062000244826200028360201b60201c565b156200025457600090506200027e565b6000602083015190506200026e81620002e060201b60201c565b9150600860208451030282019150505b919050565b600080600060208401905060005b8451811015620002d357815192506000831115620002b65760009350505050620002db565b602082019150602081620002cb91906200069d565b905062000291565b506001925050505b919050565b6000808214600181146200052f578260018403935060028404841793506004840484179350601084048417935061010084048417935062010000840484179350640100000000840484179350680100000000000000008404841793507001000000000000000000000000000000008404841793506001840193506040517ff8f9cbfae6cc78fbefe7cdc3a1793dfcf4f0e8bbd8cec470b6a28a7a5a3e1efd81527ff5ecf1b3e9debc68e1d9cfabc5997135bfb7a7a3938b7b606b5b4b3f2f1f0ffe60208201527ff6e4ed9ff2d6b458eadcdf97bd91692de2d4da8fd2d0ac50c6ae9a827252361660408201527fc8c0b887b0a8a4489c948c7f847c6125746c645c544c444038302820181008ff60608201527ff7cae577eec2a03cf3bad76fb589591debb2dd67e0aa9834bea6925f6a4a2e0e60808201527fe39ed557db96902cd38ed14fad815115c786af479b7e8324736353433727170760a08201527fc976c13bb96e881cb166a933a55e490d9d56952b8d4e801485467d236242260660c08201527f753a6d1b65325d0c552a4d1345224105391a310b29122104190a11030902010060e082015261010081016040527e818283848586878898a8b8c8d8e8f929395969799a9b9d9e9faaeb6bedeeff7f01000000000000000000000000000000000000000000000000000000000000008082880204818160ff038501510496507f8000000000000000000000000000000000000000000000000000000000000000851161010002870196506000600186038616141562000524576001870196505b505050505062000534565b600091505b50919050565b828054620005489062000704565b90600052602060002090601f0160209004810192826200056c5760008555620005b8565b82601f106200058757805160ff1916838001178555620005b8565b82800160010185558215620005b8579182015b82811115620005b75782518255916020019190600101906200059a565b5b509050620005c79190620005ee565b5090565b604051806060016040528060608152602001600015158152602001600081525090565b5b8082111562000609576000816000905550600101620005ef565b5090565b6000815190506200061e81620007a2565b92915050565b600080604083850312156200063857600080fd5b600062000648858286016200060d565b92505060206200065b858286016200060d565b9150509250929050565b6200067a6200067482620006fa565b6200073a565b82525050565b60006200068e828462000665565b60208201915081905092915050565b6000620006aa82620006fa565b9150620006b783620006fa565b9250827fffffffffffffffffffffffffffffffffffffffffffffffffffffffffffffffff03821115620006ef57620006ee62000744565b5b828201905092915050565b6000819050919050565b600060028204905060018216806200071d57607f821691505b6020821081141562000734576200073362000773565b5b50919050565b6000819050919050565b7f4e487b7100000000000000000000000000000000000000000000000000000000600052601160045260246000fd5b7f4e487b7100000000000000000000000000000000000000000000000000000000600052602260045260246000fd5b620007ad81620006fa565b8114620007b957600080fd5b50565b611db280620007cc6000396000f3fe608060405234801561001057600080fd5b50600436106100365760003560e01c8063412f9cac1461003b578063c30918d11461006b575b600080fd5b6100556004803603810190610050919061198d565b61009b565b6040516100629190611a97565b60405180910390f35b610085600480360381019061008091906119c9565b6100af565b6040516100929190611a7c565b60405180910390f35b60006100a783836104ee565b905092915050565b6000806100dc856040516020016100c69190611a61565b604051602081830303815290604052600061059e565b9050600061010a856040516020016100f49190611a61565b604051602081830303815290604052600061059e565b90506000610138856040516020016101229190611a61565b604051602081830303815290604052600061059e565b9050600061014c8960001b8960001b61009b565b9050600061016361015c836105ba565b600061059e565b905060006104926102fb600360405180606001604052908160008201805461018a90611c8a565b80601f01602080910402602001604051908101604052809291908181526020018280546101b690611c8a565b80156102035780601f106101d857610100808354040283529160200191610203565b820191906000526020600020905b8154815290600101906020018083116101e657829003601f168201915b505050505081526020016001820160009054906101000a900460ff1615151515815260200160028201548152505087600060405180606001604052908160008201805461024f90611c8a565b80601f016020809104026020016040519081016040528092919081815260200182805461027b90611c8a565b80156102c85780601f1061029d576101008083540402835291602001916102c8565b820191906000526020600020905b8154815290600101906020018083116102ab57829003601f168201915b505050505081526020016001820160009054906101000a900460ff1615151515815260200160028201548152505061070b565b6103c98685600060405180606001604052908160008201805461031d90611c8a565b80601f016020809104026020016040519081016040528092919081815260200182805461034990611c8a565b80156103965780601f1061036b57610100808354040283529160200191610396565b820191906000526020600020905b81548152906001019060200180831161037957829003601f168201915b505050505081526020016001820160009054906101000a900460ff1615151515815260200160028201548152505061070b565b60006040518060600160405290816000820180546103e690611c8a565b80601f016020809104026020016040519081016040528092919081815260200182805461041290611c8a565b801561045f5780601f106104345761010080835404028352916020019161045f565b820191906000526020600020905b81548152906001019060200180831161044257829003601f168201915b505050505081526020016001820160009054906101000a900460ff16151515158152602001600282015481525050610809565b905060006104a28288600061082d565b149650505050505050949350505050565b6104bb611940565b6104e6836040516020016104cf9190611a61565b604051602081830303815290604052836000610a0a565b905092915050565b60007f30644e72e131a029b85045b68181585d2833e84879b9709143e1f593f000000180838508818182098282848386858609090991507faed26d6a3f5e0ea662411ddfcde3527479de9cee7a56c656ff5f61df13a3940160005260005b605a811215610585576020600020806000528487868387080893508484850992508484868588878809090993505060018101905061054c565b5082858308915082858488850808935050505092915050565b6105a6611940565b6105b283836000610a0a565b905092915050565b60606000602067ffffffffffffffff8111156105ff577f4e487b7100000000000000000000000000000000000000000000000000000000600052604160045260246000fd5b6040519080825280601f01601f1916602001820160405280156106315781602001600182028036833780820191505090505b50905060005b60208160ff16101561070157838160ff166020811061067f577f4e487b7100000000000000000000000000000000000000000000000000000000600052603260045260246000fd5b1a60f81b828260ff16815181106106bf577f4e487b7100000000000000000000000000000000000000000000000000000000600052603260045260246000fd5b60200101907effffffffffffffffffffffffffffffffffffffffffffffffffffffffffffff1916908160001a90535080806106f990611cbc565b915050610637565b5080915050919050565b610713611940565b600015158360200151151514801561073357506000151582602001511515145b801561074957506107478260000151610ad8565b155b61075257600080fd5b600061076b856000015185600001518560000151610b2f565b9050600061077882610c14565b905060008114156107945761078b610c54565b92505050610802565b856020015180156107aa57506107a985610c96565b5b156107df576107d660405180606001604052808481526020016001151581526020018381525085610cab565b92505050610802565b604051806060016040528083815260200160001515815260200182815250925050505b9392505050565b610811611940565b61082461081e8585610ed7565b83610f7c565b90509392505050565b6000806001905082156108f8578460200151801561084c575083602001515b15610879577fffffffffffffffffffffffffffffffffffffffffffffffffffffffffffffffff90506108f7565b600015158560200151151514801561089957506001151584602001511515145b156108a8576001915050610a03565b60011515856020015115151480156108c857506000151584602001511515145b156108f6577fffffffffffffffffffffffffffffffffffffffffffffffffffffffffffffffff915050610a03565b5b5b8360400151856040015111156109115780915050610a03565b84604001518460400151111561095557807fffffffffffffffffffffffffffffffffffffffffffffffffffffffffffffffff61094d9190611b08565b915050610a03565b6000806000806000896000015151905060208a510194506020895101935060005b818110156109f757808601519350808501519250828411156109a15786975050505050505050610a03565b838311156109e357867fffffffffffffffffffffffffffffffffffffffffffffffffffffffffffffffff6109d59190611b08565b975050505050505050610a03565b6020816109f09190611ab2565b9050610976565b50600096505050505050505b9392505050565b610a12611940565b6020840184516000596000602084061460018114610a4457602084066020036020818401019350808501835250610a4e565b6020820192508382525b508282848660046101c2fa506020815101810160405280515b6000602082141415610a9b57600060208301511460018114610a895750610a9b565b60208301925050602081039050610a67565b808252818652876020870152505050505060008214610aba5781610ac8565b610ac78160000151610c14565b5b8160400181815250509392505050565b600080600060208401905060005b8451811015610b2257815192506000831115610b085760009350505050610b2a565b602082019150602081610b1b9190611ab2565b9050610ae6565b506001925050505b919050565b606083518351835160405183815282602082015281604082015283606082018560208b0160046101c2fa84606001848184018660208c0160046101c2fa91508481019050838184018560208b0160046101c2fa91508160008114610b9257610b94565bfe5b5083810190508360608401828560056105465a03fa91508160008114610bb957610bbb565bfe5b5083606084015b6000602083141415610bf357600081511460018114610be15750610bf3565b60208201915050602082039150610bc2565b60208103985081895285856060010160405250505050505050509392505050565b6000610c1f82610ad8565b15610c2d5760009050610c4f565b600060208301519050610c3f81610f9e565b9150600860208451030282019150505b919050565b610c5c611940565b6040518060600160405280604051806040016040528060208152602001600081525081526020016000151581526020016000815250905090565b60008151518251016002815106915050919050565b610cb3611940565b60008360400151148015610ccb575060008260400151145b15610cdf57610cd8610c54565b9050610ed1565b600083604001511415610cf457819050610ed1565b600082604001511415610d0957829050610ed1565b6060600080610d1a8686600061082d565b9050856020015180610d2d575084602001515b15610e5c5785602001518015610d44575084602001515b15610dab5760008112610d7557610d688660000151866000015188604001516111f5565b8093508194505050610d95565b610d8c8560000151876000015187604001516111f5565b80935081945050505b6001846020019015159081151581525050610e57565b6001811415610de757610dc68660000151866000015161132c565b80935081945050508560200151846020019015159081151581525050610e56565b7fffffffffffffffffffffffffffffffffffffffffffffffffffffffffffffffff811415610e4357610e218560000151876000015161132c565b8093508194505050856020015115846020019015159081151581525050610e55565b610e4b610c54565b9350505050610ed1565b5b5b610eba565b60008112610e8857610e7b8660000151866000015188604001516111f5565b8093508194505050610ea8565b610e9f8560000151876000015187604001516111f5565b80935081945050505b60008460200190151590811515815250505b828460000181905250818460400181815250505050505b92915050565b610edf611940565b6000610eeb8484610cab565b90506000610f0b82610efb611459565b610f0685600261149b565b61070b565b9050610f178585611517565b610f66576000610f278686611543565b90506000610f4782610f37611459565b610f4285600261149b565b61070b565b9050610f5d610f568483611543565b6002611796565b94505050610f74565b610f71816002611796565b92505b505092915050565b610f84611940565b610f9683610f906118fe565b8461070b565b905092915050565b6000808214600181146111ea578260018403935060028404841793506004840484179350601084048417935061010084048417935062010000840484179350640100000000840484179350680100000000000000008404841793507001000000000000000000000000000000008404841793506001840193506040517ff8f9cbfae6cc78fbefe7cdc3a1793dfcf4f0e8bbd8cec470b6a28a7a5a3e1efd81527ff5ecf1b3e9debc68e1d9cfabc5997135bfb7a7a3938b7b606b5b4b3f2f1f0ffe60208201527ff6e4ed9ff2d6b458eadcdf97bd91692de2d4da8fd2d0ac50c6ae9a827252361660408201527fc8c0b887b0a8a4489c948c7f847c6125746c645c544c444038302820181008ff60608201527ff7cae577eec2a03cf3bad76fb589591debb2dd67e0aa9834bea6925f6a4a2e0e60808201527fe39ed557db96902cd38ed14fad815115c786af479b7e8324736353433727170760a08201527fc976c13bb96e881cb166a933a55e490d9d56952b8d4e801485467d236242260660c08201527f753a6d1b65325d0c552a4d1345224105391a310b29122104190a11030902010060e082015261010081016040527e818283848586878898a8b8c8d8e8f929395969799a9b9d9e9faaeb6bedeeff7f01000000000000000000000000000000000000000000000000000000000000008082880204818160ff038501510496507f800000000000000000000000000000000000000000000000000000000000000085116101000287019650600060018603861614156111e0576001870196505b50505050506111ef565b600091505b50919050565b606060006060596000600160000388518901885189018a5160208601018b515b600080821414156112c25783518c518e510382116001811461125a57878201845260018814828814166001811461124f5760009850611254565b600198505b506112a9565b845188818401018552888103880383116001811461129b576000821160008b111789851416600181146112905760009a50611295565b60019a505b506112a0565b600199505b50602086039550505b5060208303925060208503945050602081039050611215565b5060008514600181146112d857600182526112df565b6020870196505b50859650846020028c510187526020875101870160405260208701516001816101008d061c146001821417156113165760018b019a505b5050505050505080849250925050935093915050565b6060600060606000807fffffffffffffffffffffffffffffffffffffffffffffffffffffffffffffffff90505987518751808203828b01828b0184860160208101865b60008082141415611400578451868211600181146113b1578c8203855260018d146000831416600181146113a65760009d506113ab565b60019d505b506113e7565b85518d81840303865260018e148d8214168e8201841017600181146113d95760009e506113de565b60019e505b50602087039650505b506020840393506020860395505060208103905061136f565b506020820191505b60008251141561142957602088019750602087039650602082019150611408565b879a50868b52806040525050505050505050600061144684610c14565b9050838195509550505050509250929050565b611461611940565b6040518060600160405280604051806040016040528060208152602001600281525081526020016000151581526020016002815250905090565b6114a3611940565b6000604051806040016040528060208152602001600081525090506000836040860151029050600161010082061b6020600161010084040102835280602084015260208351018301604052506040518060600160405280838152602001600015158152602001828152509250505092915050565b6000806115268484600161082d565b90506000811461153757600061153a565b60015b91505092915050565b61154b611940565b60008360400151148015611563575060008260400151145b1561157757611570610c54565b9050611790565b60606000806115888686600061082d565b915085602001518061159b575084602001515b156116d457856020015180156115b2575084602001515b156116605760018214156115f0576115d28660000151866000015161132c565b8092508194505050600184602001901515908115158152505061165b565b7fffffffffffffffffffffffffffffffffffffffffffffffffffffffffffffffff8214156116485761162a8560000151876000015161132c565b8092508194505050600084602001901515908115158152505061165a565b611650610c54565b9350505050611790565b5b6116cf565b6000821261168c5761167f8660000151866000015188604001516111f5565b80925081945050506116ac565b6116a38560000151876000015187604001516111f5565b80925081945050505b85602001516116bc5760006116bf565b60015b8460200190151590811515815250505b611779565b600182141561170d576116ef8660000151866000015161132c565b80925081945050506000846020019015159081151581525050611778565b7fffffffffffffffffffffffffffffffffffffffffffffffffffffffffffffffff821415611765576117478560000151876000015161132c565b80925081945050506001846020019015159081151581525050611777565b61176d610c54565b9350505050611790565b5b5b828460000181905250808460400181815250505050505b92915050565b61179e611940565b60008351519050836040015183106117ed5760405180606001604052806040518060400160405280602081526020016000815250815260200160001515815260200160008152509150506118f8565b8284604001516117fd9190611c1f565b84604001818152505061010083146101008411171561182e5760206101008404028103905080845152610100830692505b835160006008850614600181146118a0576000808661010003858501865b6000808214141561189657602081146001811461186f5760208303519550611874565b600095505b5081518a1c935084831b9450848417825260208203915060208103905061184c565b50505050506118ce565b6008850486518051602081018383018482038282848760046101c2fa6000601f840153848652505050505050505b50602081016000815114600181146118e5576118f0565b602083510382528187525b505050839150505b92915050565b611906611940565b6040518060600160405280604051806040016040528060208152602001600181525081526020016000151581526020016001815250905090565b604051806060016040528060608152602001600015158152602001600081525090565b60008135905061197281611d4e565b92915050565b60008135905061198781611d65565b92915050565b600080604083850312156119a057600080fd5b60006119ae85828601611963565b92505060206119bf85828601611963565b9150509250929050565b600080600080608085870312156119df57600080fd5b60006119ed87828801611978565b94505060206119fe87828801611978565b9350506040611a0f87828801611978565b9250506060611a2087828801611978565b91505092959194509250565b611a3581611c53565b82525050565b611a4481611c5f565b82525050565b611a5b611a5682611c73565b611ce6565b82525050565b6000611a6d8284611a4a565b60208201915081905092915050565b6000602082019050611a916000830184611a2c565b92915050565b6000602082019050611aac6000830184611a3b565b92915050565b6000611abd82611c73565b9150611ac883611c73565b9250827fffffffffffffffffffffffffffffffffffffffffffffffffffffffffffffffff03821115611afd57611afc611cf0565b5b828201905092915050565b6000611b1382611c69565b9150611b1e83611c69565b9250827f7fffffffffffffffffffffffffffffffffffffffffffffffffffffffffffffff0482116000841360008413161615611b5d57611b5c611cf0565b5b817f80000000000000000000000000000000000000000000000000000000000000000583126000841260008413161615611b9a57611b99611cf0565b5b827f80000000000000000000000000000000000000000000000000000000000000000582126000841360008412161615611bd757611bd6611cf0565b5b827f7fffffffffffffffffffffffffffffffffffffffffffffffffffffffffffffff0582126000841260008412161615611c1457611c13611cf0565b5b828202905092915050565b6000611c2a82611c73565b9150611c3583611c73565b925082821015611c4857611c47611cf0565b5b828203905092915050565b60008115159050919050565b6000819050919050565b6000819050919050565b6000819050919050565b600060ff82169050919050565b60006002820490506001821680611ca257607f821691505b60208210811415611cb657611cb5611d1f565b5b50919050565b6000611cc782611c7d565b915060ff821415611cdb57611cda611cf0565b5b600182019050919050565b6000819050919050565b7f4e487b7100000000000000000000000000000000000000000000000000000000600052601160045260246000fd5b7f4e487b7100000000000000000000000000000000000000000000000000000000600052602260045260246000fd5b611d5781611c5f565b8114611d6257600080fd5b50565b611d6e81611c73565b8114611d7957600080fd5b5056fea2646970667358221220e96b128f2e97d83a992c78bb02a524db5c4cece432f0585a09f44b78a4bb7a3d64736f6c63430008020033",
  "immutableReferences": {},
  "source": "// SPDX-License-Identifier: LGPL-3.0+\npragma solidity ^0.8.2;\n\nimport \"./BigNumbers.sol\";\nimport \"./MiMC7.sol\";\n\n// ALT_BN128\n// prime     : 21888242871839275222246405745257275088548364400416034343698204186575808495617\n// generator : 10398164868948269691505217409040279103932722394566360325611713252123766059173\n\ncontract VerifySchnorr {\n    BigNumber p;\n    BigNumber g;\n    constructor(uint256 prime, uint256 generator) {\n        p = BigNumbers.init(prime, false);\n        g = BigNumbers.init(generator, false);\n\t}\n    \n    function hash(bytes32 x, bytes32 y) public pure returns(bytes32) {\n        return MiMC7._hash(x, y);\n    }\n\n    function bytes32TOBytes(bytes32 data) internal pure returns (bytes memory){\n        bytes memory ret = new bytes(32);\n        for (uint8 i=0; i<32; i++){\n            ret[i] = data[i];\n        }\n\n        return ret;\n    }\n    \n    function Verify(uint256 m, uint256 r, uint256 s, uint256 pk) public view returns (bool){\n        BigNumber memory _r = BigNumbers.init(abi.encodePacked(r), false);\n        BigNumber memory _s = BigNumbers.init(abi.encodePacked(s), false);\n        BigNumber memory _pk = BigNumbers.init(abi.encodePacked(pk), false);\n\n        bytes32 e = hash(bytes32(m), bytes32(r));\n        BigNumber memory _e = BigNumbers.init(bytes32TOBytes(e), false);\n\n        BigNumber memory calc_r = BigNumbers.modmul (\n            BigNumbers.modexp(g, _s, p),\n            BigNumbers.modexp(_pk, _e, p),\n            p\n        );\n\n        return BigNumbers.cmp(calc_r, _r, false) == 0;\n    }\n}",
  "sourcePath": "/Users/kim/DID-dev/DIDcontracts/contracts/VerifySchnorr.sol",
  "compiler": {
    "name": "solc",
    "version": "0.8.2+commit.661d1103.Emscripten.clang"
  },
  "schemaVersion": "3.4.11",
  "updatedAt": "2022-12-28T06:30:47.245Z",
  "networkType": "ethereum",
  "devdoc": {
    "kind": "dev",
    "methods": {},
    "version": 1
  },
  "userdoc": {
    "kind": "user",
    "methods": {},
    "version": 1
  }
}