{
  "contractName": "VerifySchnorr",
  "abi": [
    {
      "inputs": [
        {
          "internalType": "uint256",
          "name": "prime",
          "type": "uint256"
        },
        {
          "internalType": "uint256",
          "name": "generator",
          "type": "uint256"
        }
      ],
      "stateMutability": "nonpayable",
      "type": "constructor"
    },
    {
      "inputs": [
        {
          "internalType": "bytes32",
          "name": "x",
          "type": "bytes32"
        },
        {
          "internalType": "bytes32",
          "name": "y",
          "type": "bytes32"
        }
      ],
      "name": "hash",
      "outputs": [
        {
          "internalType": "bytes32",
          "name": "",
          "type": "bytes32"
        }
      ],
      "stateMutability": "pure",
      "type": "function"
    },
    {
      "inputs": [
        {
          "internalType": "uint256",
          "name": "m",
          "type": "uint256"
        },
        {
          "internalType": "uint256",
          "name": "r",
          "type": "uint256"
        },
        {
          "internalType": "uint256",
          "name": "s",
          "type": "uint256"
        },
        {
          "internalType": "uint256",
          "name": "pk",
          "type": "uint256"
        }
      ],
      "name": "Verify",
      "outputs": [
        {
          "internalType": "bool",
          "name": "",
          "type": "bool"
        }
      ],
      "stateMutability": "view",
      "type": "function"
    },
    {
      "inputs": [],
      "name": "getFeildPrimeBytes",
      "outputs": [
        {
          "internalType": "bytes",
          "name": "",
          "type": "bytes"
        }
      ],
      "stateMutability": "view",
      "type": "function"
    },
    {
      "inputs": [],
      "name": "getGeneratorBytes",
      "outputs": [
        {
          "internalType": "bytes",
          "name": "",
          "type": "bytes"
        }
      ],
      "stateMutability": "view",
      "type": "function"
    }
  ],
  "bytecode": "0x60806040523480156200001157600080fd5b50604051620027b4380380620027b4833981810160405281019062000037919062000624565b6200004f8260006200010a60201b6200062e1760201c565b6000808201518160000190805190602001906200006e9291906200053a565b5060208201518160010160006101000a81548160ff02191690831515021790555060408201518160020155905050620000b48160006200010a60201b6200062e1760201c565b60036000820151816000019080519060200190620000d49291906200053a565b5060208201518160010160006101000a81548160ff021916908315150217905550604082015181600201559050505050620007bc565b62000114620005cb565b62000149836040516020016200012b919062000680565b6040516020818303038152906040528360006200015160201b60201c565b905092915050565b6200015b620005cb565b60208401845160005960006020840614600181146200018f5760208406602003602081840101935080850183525062000199565b6020820192508382525b508282848660046101c2fa506020815101810160405280515b6000602082141415620001ea57600060208301511460018114620001d75750620001ea565b60208301925050602081039050620001b2565b8082528186528760208701525050505050600082146200020b578162000221565b6200022081600001516200023160201b60201c565b5b8160400181815250509392505050565b600062000244826200028360201b60201c565b156200025457600090506200027e565b6000602083015190506200026e81620002e060201b60201c565b9150600860208451030282019150505b919050565b600080600060208401905060005b8451811015620002d357815192506000831115620002b65760009350505050620002db565b602082019150602081620002cb91906200069d565b905062000291565b506001925050505b919050565b6000808214600181146200052f578260018403935060028404841793506004840484179350601084048417935061010084048417935062010000840484179350640100000000840484179350680100000000000000008404841793507001000000000000000000000000000000008404841793506001840193506040517ff8f9cbfae6cc78fbefe7cdc3a1793dfcf4f0e8bbd8cec470b6a28a7a5a3e1efd81527ff5ecf1b3e9debc68e1d9cfabc5997135bfb7a7a3938b7b606b5b4b3f2f1f0ffe60208201527ff6e4ed9ff2d6b458eadcdf97bd91692de2d4da8fd2d0ac50c6ae9a827252361660408201527fc8c0b887b0a8a4489c948c7f847c6125746c645c544c444038302820181008ff60608201527ff7cae577eec2a03cf3bad76fb589591debb2dd67e0aa9834bea6925f6a4a2e0e60808201527fe39ed557db96902cd38ed14fad815115c786af479b7e8324736353433727170760a08201527fc976c13bb96e881cb166a933a55e490d9d56952b8d4e801485467d236242260660c08201527f753a6d1b65325d0c552a4d1345224105391a310b29122104190a11030902010060e082015261010081016040527e818283848586878898a8b8c8d8e8f929395969799a9b9d9e9faaeb6bedeeff7f01000000000000000000000000000000000000000000000000000000000000008082880204818160ff038501510496507f8000000000000000000000000000000000000000000000000000000000000000851161010002870196506000600186038616141562000524576001870196505b505050505062000534565b600091505b50919050565b828054620005489062000704565b90600052602060002090601f0160209004810192826200056c5760008555620005b8565b82601f106200058757805160ff1916838001178555620005b8565b82800160010185558215620005b8579182015b82811115620005b75782518255916020019190600101906200059a565b5b509050620005c79190620005ee565b5090565b604051806060016040528060608152602001600015158152602001600081525090565b5b8082111562000609576000816000905550600101620005ef565b5090565b6000815190506200061e81620007a2565b92915050565b600080604083850312156200063857600080fd5b600062000648858286016200060d565b92505060206200065b858286016200060d565b9150509250929050565b6200067a6200067482620006fa565b6200073a565b82525050565b60006200068e828462000665565b60208201915081905092915050565b6000620006aa82620006fa565b9150620006b783620006fa565b9250827fffffffffffffffffffffffffffffffffffffffffffffffffffffffffffffffff03821115620006ef57620006ee62000744565b5b828201905092915050565b6000819050919050565b600060028204905060018216806200071d57607f821691505b6020821081141562000734576200073362000773565b5b50919050565b6000819050919050565b7f4e487b7100000000000000000000000000000000000000000000000000000000600052601160045260246000fd5b7f4e487b7100000000000000000000000000000000000000000000000000000000600052602260045260246000fd5b620007ad81620006fa565b8114620007b957600080fd5b50565b611fe880620007cc6000396000f3fe608060405234801561001057600080fd5b506004361061004c5760003560e01c8063412f9cac14610051578063b1a4686c14610081578063c30918d11461009f578063e6760e93146100cf575b600080fd5b61006b60048036038101906100669190611b08565b6100ed565b6040516100789190611c4b565b60405180910390f35b610089610101565b6040516100969190611c66565b60405180910390f35b6100b960048036038101906100b49190611b44565b610195565b6040516100c69190611c30565b60405180910390f35b6100d7610599565b6040516100e49190611c66565b60405180910390f35b60006100f98383610669565b905092915050565b606060008001805461011290611eaf565b80601f016020809104026020016040519081016040528092919081815260200182805461013e90611eaf565b801561018b5780601f106101605761010080835404028352916020019161018b565b820191906000526020600020905b81548152906001019060200180831161016e57829003601f168201915b5050505050905090565b6000806101c2856040516020016101ac9190611c15565b6040516020818303038152906040526000610719565b905060006101f0856040516020016101da9190611c15565b6040516020818303038152906040526000610719565b9050600061021e856040516020016102089190611c15565b6040516020818303038152906040526000610719565b905060006102328960001b8960001b6100ed565b9050600061024961024283610735565b6000610719565b905060006105786103e1600360405180606001604052908160008201805461027090611eaf565b80601f016020809104026020016040519081016040528092919081815260200182805461029c90611eaf565b80156102e95780601f106102be576101008083540402835291602001916102e9565b820191906000526020600020905b8154815290600101906020018083116102cc57829003601f168201915b505050505081526020016001820160009054906101000a900460ff1615151515815260200160028201548152505087600060405180606001604052908160008201805461033590611eaf565b80601f016020809104026020016040519081016040528092919081815260200182805461036190611eaf565b80156103ae5780601f10610383576101008083540402835291602001916103ae565b820191906000526020600020905b81548152906001019060200180831161039157829003601f168201915b505050505081526020016001820160009054906101000a900460ff16151515158152602001600282015481525050610886565b6104af8685600060405180606001604052908160008201805461040390611eaf565b80601f016020809104026020016040519081016040528092919081815260200182805461042f90611eaf565b801561047c5780601f106104515761010080835404028352916020019161047c565b820191906000526020600020905b81548152906001019060200180831161045f57829003601f168201915b505050505081526020016001820160009054906101000a900460ff16151515158152602001600282015481525050610886565b60006040518060600160405290816000820180546104cc90611eaf565b80601f01602080910402602001604051908101604052809291908181526020018280546104f890611eaf565b80156105455780601f1061051a57610100808354040283529160200191610545565b820191906000526020600020905b81548152906001019060200180831161052857829003601f168201915b505050505081526020016001820160009054906101000a900460ff16151515158152602001600282015481525050610984565b90506000610588828860006109a8565b149650505050505050949350505050565b6060600360000180546105ab90611eaf565b80601f01602080910402602001604051908101604052809291908181526020018280546105d790611eaf565b80156106245780601f106105f957610100808354040283529160200191610624565b820191906000526020600020905b81548152906001019060200180831161060757829003601f168201915b5050505050905090565b610636611abb565b6106618360405160200161064a9190611c15565b604051602081830303815290604052836000610b85565b905092915050565b60007f30644e72e131a029b85045b68181585d2833e84879b9709143e1f593f000000180838508818182098282848386858609090991507faed26d6a3f5e0ea662411ddfcde3527479de9cee7a56c656ff5f61df13a3940160005260005b605a81121561070057602060002080600052848786838708089350848485099250848486858887880909099350506001810190506106c7565b5082858308915082858488850808935050505092915050565b610721611abb565b61072d83836000610b85565b905092915050565b60606000602067ffffffffffffffff81111561077a577f4e487b7100000000000000000000000000000000000000000000000000000000600052604160045260246000fd5b6040519080825280601f01601f1916602001820160405280156107ac5781602001600182028036833780820191505090505b50905060005b60208160ff16101561087c57838160ff16602081106107fa577f4e487b7100000000000000000000000000000000000000000000000000000000600052603260045260246000fd5b1a60f81b828260ff168151811061083a577f4e487b7100000000000000000000000000000000000000000000000000000000600052603260045260246000fd5b60200101907effffffffffffffffffffffffffffffffffffffffffffffffffffffffffffff1916908160001a905350808061087490611ee1565b9150506107b2565b5080915050919050565b61088e611abb565b60001515836020015115151480156108ae57506000151582602001511515145b80156108c457506108c28260000151610c53565b155b6108cd57600080fd5b60006108e6856000015185600001518560000151610caa565b905060006108f382610d8f565b9050600081141561090f57610906610dcf565b9250505061097d565b85602001518015610925575061092485610e11565b5b1561095a5761095160405180606001604052808481526020016001151581526020018381525085610e26565b9250505061097d565b604051806060016040528083815260200160001515815260200182815250925050505b9392505050565b61098c611abb565b61099f6109998585611052565b836110f7565b90509392505050565b600080600190508215610a7357846020015180156109c7575083602001515b156109f4577fffffffffffffffffffffffffffffffffffffffffffffffffffffffffffffffff9050610a72565b6000151585602001511515148015610a1457506001151584602001511515145b15610a23576001915050610b7e565b6001151585602001511515148015610a4357506000151584602001511515145b15610a71577fffffffffffffffffffffffffffffffffffffffffffffffffffffffffffffffff915050610b7e565b5b5b836040015185604001511115610a8c5780915050610b7e565b846040015184604001511115610ad057807fffffffffffffffffffffffffffffffffffffffffffffffffffffffffffffffff610ac89190611cfa565b915050610b7e565b6000806000806000896000015151905060208a510194506020895101935060005b81811015610b725780860151935080850151925082841115610b1c5786975050505050505050610b7e565b83831115610b5e57867fffffffffffffffffffffffffffffffffffffffffffffffffffffffffffffffff610b509190611cfa565b975050505050505050610b7e565b602081610b6b9190611ca4565b9050610af1565b50600096505050505050505b9392505050565b610b8d611abb565b6020840184516000596000602084061460018114610bbf57602084066020036020818401019350808501835250610bc9565b6020820192508382525b508282848660046101c2fa506020815101810160405280515b6000602082141415610c1657600060208301511460018114610c045750610c16565b60208301925050602081039050610be2565b808252818652876020870152505050505060008214610c355781610c43565b610c428160000151610d8f565b5b8160400181815250509392505050565b600080600060208401905060005b8451811015610c9d57815192506000831115610c835760009350505050610ca5565b602082019150602081610c969190611ca4565b9050610c61565b506001925050505b919050565b606083518351835160405183815282602082015281604082015283606082018560208b0160046101c2fa84606001848184018660208c0160046101c2fa91508481019050838184018560208b0160046101c2fa91508160008114610d0d57610d0f565bfe5b5083810190508360608401828560056105465a03fa91508160008114610d3457610d36565bfe5b5083606084015b6000602083141415610d6e57600081511460018114610d5c5750610d6e565b60208201915050602082039150610d3d565b60208103985081895285856060010160405250505050505050509392505050565b6000610d9a82610c53565b15610da85760009050610dca565b600060208301519050610dba81611119565b9150600860208451030282019150505b919050565b610dd7611abb565b6040518060600160405280604051806040016040528060208152602001600081525081526020016000151581526020016000815250905090565b60008151518251016002815106915050919050565b610e2e611abb565b60008360400151148015610e46575060008260400151145b15610e5a57610e53610dcf565b905061104c565b600083604001511415610e6f5781905061104c565b600082604001511415610e845782905061104c565b6060600080610e95868660006109a8565b9050856020015180610ea8575084602001515b15610fd75785602001518015610ebf575084602001515b15610f265760008112610ef057610ee3866000015186600001518860400151611370565b8093508194505050610f10565b610f07856000015187600001518760400151611370565b80935081945050505b6001846020019015159081151581525050610fd2565b6001811415610f6257610f41866000015186600001516114a7565b80935081945050508560200151846020019015159081151581525050610fd1565b7fffffffffffffffffffffffffffffffffffffffffffffffffffffffffffffffff811415610fbe57610f9c856000015187600001516114a7565b8093508194505050856020015115846020019015159081151581525050610fd0565b610fc6610dcf565b935050505061104c565b5b5b611035565b6000811261100357610ff6866000015186600001518860400151611370565b8093508194505050611023565b61101a856000015187600001518760400151611370565b80935081945050505b60008460200190151590811515815250505b828460000181905250818460400181815250505050505b92915050565b61105a611abb565b60006110668484610e26565b90506000611086826110766115d4565b611081856002611616565b610886565b90506110928585611692565b6110e15760006110a286866116be565b905060006110c2826110b26115d4565b6110bd856002611616565b610886565b90506110d86110d184836116be565b6002611911565b945050506110ef565b6110ec816002611911565b92505b505092915050565b6110ff611abb565b6111118361110b611a79565b84610886565b905092915050565b600080821460018114611365578260018403935060028404841793506004840484179350601084048417935061010084048417935062010000840484179350640100000000840484179350680100000000000000008404841793507001000000000000000000000000000000008404841793506001840193506040517ff8f9cbfae6cc78fbefe7cdc3a1793dfcf4f0e8bbd8cec470b6a28a7a5a3e1efd81527ff5ecf1b3e9debc68e1d9cfabc5997135bfb7a7a3938b7b606b5b4b3f2f1f0ffe60208201527ff6e4ed9ff2d6b458eadcdf97bd91692de2d4da8fd2d0ac50c6ae9a827252361660408201527fc8c0b887b0a8a4489c948c7f847c6125746c645c544c444038302820181008ff60608201527ff7cae577eec2a03cf3bad76fb589591debb2dd67e0aa9834bea6925f6a4a2e0e60808201527fe39ed557db96902cd38ed14fad815115c786af479b7e8324736353433727170760a08201527fc976c13bb96e881cb166a933a55e490d9d56952b8d4e801485467d236242260660c08201527f753a6d1b65325d0c552a4d1345224105391a310b29122104190a11030902010060e082015261010081016040527e818283848586878898a8b8c8d8e8f929395969799a9b9d9e9faaeb6bedeeff7f01000000000000000000000000000000000000000000000000000000000000008082880204818160ff038501510496507f8000000000000000000000000000000000000000000000000000000000000000851161010002870196506000600186038616141561135b576001870196505b505050505061136a565b600091505b50919050565b606060006060596000600160000388518901885189018a5160208601018b515b6000808214141561143d5783518c518e51038211600181146113d55787820184526001881482881416600181146113ca57600098506113cf565b600198505b50611424565b8451888184010185528881038803831160018114611416576000821160008b1117898514166001811461140b5760009a50611410565b60019a505b5061141b565b600199505b50602086039550505b5060208303925060208503945050602081039050611390565b506000851460018114611453576001825261145a565b6020870196505b50859650846020028c510187526020875101870160405260208701516001816101008d061c146001821417156114915760018b019a505b5050505050505080849250925050935093915050565b6060600060606000807fffffffffffffffffffffffffffffffffffffffffffffffffffffffffffffffff90505987518751808203828b01828b0184860160208101865b6000808214141561157b5784518682116001811461152c578c8203855260018d146000831416600181146115215760009d50611526565b60019d505b50611562565b85518d81840303865260018e148d8214168e8201841017600181146115545760009e50611559565b60019e505b50602087039650505b50602084039350602086039550506020810390506114ea565b506020820191505b6000825114156115a457602088019750602087039650602082019150611583565b879a50868b5280604052505050505050505060006115c184610d8f565b9050838195509550505050509250929050565b6115dc611abb565b6040518060600160405280604051806040016040528060208152602001600281525081526020016000151581526020016002815250905090565b61161e611abb565b6000604051806040016040528060208152602001600081525090506000836040860151029050600161010082061b6020600161010084040102835280602084015260208351018301604052506040518060600160405280838152602001600015158152602001828152509250505092915050565b6000806116a1848460016109a8565b9050600081146116b25760006116b5565b60015b91505092915050565b6116c6611abb565b600083604001511480156116de575060008260400151145b156116f2576116eb610dcf565b905061190b565b6060600080611703868660006109a8565b9150856020015180611716575084602001515b1561184f578560200151801561172d575084602001515b156117db57600182141561176b5761174d866000015186600001516114a7565b809250819450505060018460200190151590811515815250506117d6565b7fffffffffffffffffffffffffffffffffffffffffffffffffffffffffffffffff8214156117c3576117a5856000015187600001516114a7565b809250819450505060008460200190151590811515815250506117d5565b6117cb610dcf565b935050505061190b565b5b61184a565b60008212611807576117fa866000015186600001518860400151611370565b8092508194505050611827565b61181e856000015187600001518760400151611370565b80925081945050505b856020015161183757600061183a565b60015b8460200190151590811515815250505b6118f4565b60018214156118885761186a866000015186600001516114a7565b809250819450505060008460200190151590811515815250506118f3565b7fffffffffffffffffffffffffffffffffffffffffffffffffffffffffffffffff8214156118e0576118c2856000015187600001516114a7565b809250819450505060018460200190151590811515815250506118f2565b6118e8610dcf565b935050505061190b565b5b5b828460000181905250808460400181815250505050505b92915050565b611919611abb565b6000835151905083604001518310611968576040518060600160405280604051806040016040528060208152602001600081525081526020016000151581526020016000815250915050611a73565b8284604001516119789190611e11565b8460400181815250506101008314610100841117156119a95760206101008404028103905080845152610100830692505b83516000600885061460018114611a1b576000808661010003858501865b60008082141415611a115760208114600181146119ea57602083035195506119ef565b600095505b5081518a1c935084831b945084841782526020820391506020810390506119c7565b5050505050611a49565b6008850486518051602081018383018482038282848760046101c2fa6000601f840153848652505050505050505b5060208101600081511460018114611a6057611a6b565b602083510382528187525b505050839150505b92915050565b611a81611abb565b6040518060600160405280604051806040016040528060208152602001600181525081526020016000151581526020016001815250905090565b604051806060016040528060608152602001600015158152602001600081525090565b600081359050611aed81611f84565b92915050565b600081359050611b0281611f9b565b92915050565b60008060408385031215611b1b57600080fd5b6000611b2985828601611ade565b9250506020611b3a85828601611ade565b9150509250929050565b60008060008060808587031215611b5a57600080fd5b6000611b6887828801611af3565b9450506020611b7987828801611af3565b9350506040611b8a87828801611af3565b9250506060611b9b87828801611af3565b91505092959194509250565b611bb081611e45565b82525050565b611bbf81611e51565b82525050565b6000611bd082611c88565b611bda8185611c93565b9350611bea818560208601611e7c565b611bf381611f73565b840191505092915050565b611c0f611c0a82611e65565b611f0b565b82525050565b6000611c218284611bfe565b60208201915081905092915050565b6000602082019050611c456000830184611ba7565b92915050565b6000602082019050611c606000830184611bb6565b92915050565b60006020820190508181036000830152611c808184611bc5565b905092915050565b600081519050919050565b600082825260208201905092915050565b6000611caf82611e65565b9150611cba83611e65565b9250827fffffffffffffffffffffffffffffffffffffffffffffffffffffffffffffffff03821115611cef57611cee611f15565b5b828201905092915050565b6000611d0582611e5b565b9150611d1083611e5b565b9250827f7fffffffffffffffffffffffffffffffffffffffffffffffffffffffffffffff0482116000841360008413161615611d4f57611d4e611f15565b5b817f80000000000000000000000000000000000000000000000000000000000000000583126000841260008413161615611d8c57611d8b611f15565b5b827f80000000000000000000000000000000000000000000000000000000000000000582126000841360008412161615611dc957611dc8611f15565b5b827f7fffffffffffffffffffffffffffffffffffffffffffffffffffffffffffffff0582126000841260008412161615611e0657611e05611f15565b5b828202905092915050565b6000611e1c82611e65565b9150611e2783611e65565b925082821015611e3a57611e39611f15565b5b828203905092915050565b60008115159050919050565b6000819050919050565b6000819050919050565b6000819050919050565b600060ff82169050919050565b60005b83811015611e9a578082015181840152602081019050611e7f565b83811115611ea9576000848401525b50505050565b60006002820490506001821680611ec757607f821691505b60208210811415611edb57611eda611f44565b5b50919050565b6000611eec82611e6f565b915060ff821415611f0057611eff611f15565b5b600182019050919050565b6000819050919050565b7f4e487b7100000000000000000000000000000000000000000000000000000000600052601160045260246000fd5b7f4e487b7100000000000000000000000000000000000000000000000000000000600052602260045260246000fd5b6000601f19601f8301169050919050565b611f8d81611e51565b8114611f9857600080fd5b50565b611fa481611e65565b8114611faf57600080fd5b5056fea2646970667358221220ee2537e00a6d2d5f581cffece9c0e773640bdc5233e651f6ee7bec63dd20ff2c64736f6c63430008020033",
  "immutableReferences": {},
  "source": "// SPDX-License-Identifier: LGPL-3.0+\npragma solidity ^0.8.2;\n\nimport \"./BigNumbers.sol\";\nimport \"./MiMC7.sol\";\n\n// ALT_BN128\n// prime     : 21888242871839275222246405745257275088548364400416034343698204186575808495617\n// generator : 10398164868948269691505217409040279103932722394566360325611713252123766059173\n\ncontract VerifySchnorr {\n    // save as hex bytes in BigNumber.val\n    BigNumber p; \n    BigNumber g;\n\n    constructor(uint256 prime, uint256 generator) {\n        p = BigNumbers.init(prime, false);\n        g = BigNumbers.init(generator, false);\n\t}\n    \n    function hash(bytes32 x, bytes32 y) public pure returns(bytes32) {\n        return MiMC7._hash(x, y);\n    }\n\n    function bytes32TOBytes(bytes32 data) internal pure returns (bytes memory){\n        bytes memory ret = new bytes(32);\n        for (uint8 i=0; i<32; i++){\n            ret[i] = data[i];\n        }\n\n        return ret;\n    }\n    \n\n    function Verify(uint256 m, uint256 r, uint256 s, uint256 pk) public view returns (bool){\n        BigNumber memory _r = BigNumbers.init(abi.encodePacked(r), false);\n        BigNumber memory _s = BigNumbers.init(abi.encodePacked(s), false);\n        BigNumber memory _pk = BigNumbers.init(abi.encodePacked(pk), false);\n\n        // e = hash(m || r)\n        bytes32 e = hash(bytes32(m), bytes32(r));\n        BigNumber memory _e = BigNumbers.init(bytes32TOBytes(e), false);\n\n        // r` =  (g^s * pk^e) mod p\n        BigNumber memory calc_r = BigNumbers.modmul (\n            BigNumbers.modexp(g, _s, p),\n            BigNumbers.modexp(_pk, _e, p),\n            p\n        );\n\n        // check r` == r\n        return BigNumbers.cmp(calc_r, _r, false) == 0;\n    }\n\n    // to test web3.js\n    function getFeildPrimeBytes() public view returns (bytes memory) {\n        return p.val;\n    }\n\n    function getGeneratorBytes() public view returns (bytes memory) {\n        return g.val;\n    }\n}",
  "sourcePath": "/Users/kim/DID-dev/DIDcontracts/contracts/VerifySchnorr.sol",
  "compiler": {
    "name": "solc",
    "version": "0.8.2+commit.661d1103.Emscripten.clang"
  },
  "schemaVersion": "3.4.11",
  "updatedAt": "2023-04-17T10:02:53.001Z",
  "devdoc": {
    "kind": "dev",
    "methods": {},
    "version": 1
  },
  "userdoc": {
    "kind": "user",
    "methods": {},
    "version": 1
  }
}